{
  "_format": "hh-sol-artifact-1",
  "contractName": "Counter",
  "sourceName": "contracts/Counter.sol",
  "abi": [
    {
      "inputs": [],
      "stateMutability": "nonpayable",
      "type": "constructor"
    },
    {
      "inputs": [],
      "name": "count",
      "outputs": [
        {
          "internalType": "uint256",
          "name": "",
          "type": "uint256"
        }
      ],
      "stateMutability": "view",
      "type": "function"
    },
    {
      "inputs": [],
      "name": "decrement",
      "outputs": [],
      "stateMutability": "nonpayable",
      "type": "function"
    },
    {
      "inputs": [],
      "name": "getCount",
      "outputs": [
        {
          "internalType": "uint256",
          "name": "",
          "type": "uint256"
        }
      ],
      "stateMutability": "view",
      "type": "function"
    },
    {
      "inputs": [],
      "name": "increment",
      "outputs": [],
      "stateMutability": "nonpayable",
      "type": "function"
    }
  ],
  "bytecode": "0x608060405234801561001057600080fd5b506000805561017c806100246000396000f3fe608060405234801561001057600080fd5b506004361061004c5760003560e01c806306661abd146100515780632baeceb71461006c578063a87d942c14610076578063d09de08a1461007e575b600080fd5b61005a60005481565b60405190815260200160405180910390f35b610074610086565b005b60005461005a565b6100746100f1565b60008054116100db5760405162461bcd60e51b815260206004820152601760248201527f436f756e742063616e6e6f7420676f2062656c6f772030000000000000000000604482015260640160405180910390fd5b6000805490806100ea83610116565b9190505550565b6000805490806100ea8361012d565b634e487b7160e01b600052601160045260246000fd5b60008161012557610125610100565b506000190190565b60006001820161013f5761013f610100565b506001019056fea26469706673582212202a04871ca9479b1104771d30b0738d58e0b422fec157670b264f28e2abbb802e64736f6c63430008110033",
  "linkReferences": {},
  "deployedLinkReferences": {}
}